:020000040000FA
:060000008A110A123428E7
:08000800F000030E8312031344
:10001000A8000A08A9000408AA00831203138A1181
:100020000A128C1E3C288A110A1293208A110A1285
:100030008A110A1228208A110A122A0884008312BF
:10004000031329088A00280E8300F00E700E0900A1
:1000500083120313220883120313A1008A110A12C8
:1000600086208A110A1208008A110A126B208A114E
:100070000A128A110A123C28003083120313A400CA
:100080008A110A12CA208A110A1283120313031159
:10009000A60803194A28260883120313A1008A110F
:1000A0000A1286208A110A12A40A8A110A1240280A
:0400B00000340034E4
:0C00B40083120313880183120313A000C1
:1000C0002009831603138800831203132008831268
:1000D0000313880008008316031387170717831676
:1000E000031319309900831603178711831603131E
:1000F00018159816831203131816981783160313EE
:100100008C16831203130B178B170800831203132B
:100110008A110A120C1E86288312031321088312E7
:1001200003139900080083120313A301831203131E
:100130008A110A128C1AA32883120313FC30A3001D
:100140008A110A12C928831203138A110A12181D70
:10015000AC2883120313A303831203138A110A1218
:10016000981CB62883120313A303A303831203135B
:100170000311A3088A110A120319C5288312031355
:10018000981398178A110A12C928831203131A08A0
:10019000A2000800831203132408831203178D00A2
:1001A000831603178C130C14831203170C08831285
:0601B0000313A600080085
:02400E00E53893
:02401000FF3E71
:10420000CA00F100E500ED00E500F700EA00E0007B
:104210002000EC00EE00FF002000EB00FE00E100BB
:0C422000EE00F400F4002100200000007B
:00000001FF
