:020000040000FA
:060000008A110A122828F3
:08000800F000030E8312031344
:10001000A9000A08AA000408AB00831203138A117E
:100020000A128C1E30288A110A12A9208A110A127B
:100030008A110A12E0208A110A122B088400831206
:1000400003132A088A00290E8300F00E700E09009F
:100050008A110A1281208A110A128A110A12302882
:10006000003083120313A4008A110A12EC208A11B3
:100070000A12831203130311A6088A110A12031924
:100080004E28260883120313A1008A110A129C200D
:100090008A110A12A40A8A110A123428831203133D
:1000A0002030A400831203135A30A6008A110A12CA
:1000B000FD208A110A12831203132030A4008A1132
:1000C0000A12EC208A110A12831203132608A100D7
:0C00D0008A110A129C208A110A126D2865
:0400DC0000340034B8
:1000E00083120313880183120313A00020098316CF
:1000F000031388008312031320088312031388005C
:100100000800831603138717071783160313193084
:100110009900831603178711831603131815981671
:100120008312031318169817831603138C16831261
:1001300003130B178B170800831203138A110A127B
:100140000C1E9C28831203132108831203139900A9
:10015000080083120313A301831203138A110A12E6
:100160008C1AB92883120313FC30A3008A110A12D7
:10017000DF28831203138A110A12181DC228831262
:100180000313A303831203138A110A12981CCC28A9
:1001900083120313A303A303831203130311A308FE
:1001A0008A110A120319DB28831203139813981774
:1001B0008A110A12DF28831203131A08A20008000A
:1001C00083120313220883120313A1008A110A1257
:1001D0009C208A110A120800831203132408831238
:1001E00003178D00831603178C130C148312031747
:1001F0000C0883120313A6000800831203132408BB
:10020000831203178D00831203132608831203172A
:100210008C00831603178C130C158B1355308D002F
:10022000AA308D008C140C118B17831203138A11C2
:100230000A120D1E15290D1283120313A80183162D
:1002400003178A110A120C1E2C2983120313FF3084
:0C025000A8008A110A12FD28080008000E
:02400E00E53893
:02401000FF3E71
:10420000CA00F100E500ED00E500F700EA00E0007B
:104210002000EC00EE00FF002000EB00FE00E100BB
:0C422000EE00F400F4002100200000007B
:00000001FF
